{
  "contractName": "bus_safe",
  "abi": [
    {
      "anonymous": false,
      "inputs": [
        {
          "indexed": false,
          "internalType": "address",
          "name": "checker",
          "type": "address"
        },
        {
          "indexed": false,
          "internalType": "string",
          "name": "car_id",
          "type": "string"
        },
        {
          "indexed": false,
          "internalType": "string",
          "name": "check_res",
          "type": "string"
        },
        {
          "indexed": false,
          "internalType": "string",
          "name": "check_etc",
          "type": "string"
        },
        {
          "indexed": false,
          "internalType": "uint64",
          "name": "check_time",
          "type": "uint64"
        }
      ],
      "name": "AddCheck",
      "type": "event"
    },
    {
      "constant": false,
      "inputs": [
        {
          "internalType": "string",
          "name": "_car_id",
          "type": "string"
        },
        {
          "internalType": "string",
          "name": "_check_res",
          "type": "string"
        },
        {
          "internalType": "string",
          "name": "_check_etc",
          "type": "string"
        },
        {
          "internalType": "uint64",
          "name": "_check_time",
          "type": "uint64"
        }
      ],
      "name": "AddCheckList",
      "outputs": [],
      "payable": false,
      "stateMutability": "nonpayable",
      "type": "function"
    },
    {
      "constant": true,
      "inputs": [],
      "name": "TotalCount",
      "outputs": [
        {
          "internalType": "uint32",
          "name": "",
          "type": "uint32"
        }
      ],
      "payable": false,
      "stateMutability": "view",
      "type": "function"
    },
    {
      "constant": true,
      "inputs": [
        {
          "internalType": "uint256",
          "name": "_index",
          "type": "uint256"
        }
      ],
      "name": "GetCheck",
      "outputs": [
        {
          "internalType": "address",
          "name": "",
          "type": "address"
        },
        {
          "internalType": "string",
          "name": "",
          "type": "string"
        },
        {
          "internalType": "string",
          "name": "",
          "type": "string"
        },
        {
          "internalType": "string",
          "name": "",
          "type": "string"
        },
        {
          "internalType": "uint64",
          "name": "",
          "type": "uint64"
        }
      ],
      "payable": false,
      "stateMutability": "view",
      "type": "function"
    }
  ],
  "bytecode": "0x608060405234801561001057600080fd5b50610b39806100206000396000f3fe608060405234801561001057600080fd5b50600436106100415760003560e01c8063dc627b7914610046578063e9d3489514610243578063fbd1df5414610410575b600080fd5b6102416004803603608081101561005c57600080fd5b810190808035906020019064010000000081111561007957600080fd5b82018360208201111561008b57600080fd5b803590602001918460018302840111640100000000831117156100ad57600080fd5b91908080601f016020809104026020016040519081016040528093929190818152602001838380828437600081840152601f19601f8201169050808301925050505050505091929192908035906020019064010000000081111561011057600080fd5b82018360208201111561012257600080fd5b8035906020019184600183028401116401000000008311171561014457600080fd5b91908080601f016020809104026020016040519081016040528093929190818152602001838380828437600081840152601f19601f820116905080830192505050505050509192919290803590602001906401000000008111156101a757600080fd5b8201836020820111156101b957600080fd5b803590602001918460018302840111640100000000831117156101db57600080fd5b91908080601f016020809104026020016040519081016040528093929190818152602001838380828437600081840152601f19601f820116905080830192505050505050509192919290803567ffffffffffffffff16906020019092919050505061043a565b005b61026f6004803603602081101561025957600080fd5b810190808035906020019092919050505061078a565b604051808673ffffffffffffffffffffffffffffffffffffffff1673ffffffffffffffffffffffffffffffffffffffff1681526020018060200180602001806020018567ffffffffffffffff1667ffffffffffffffff168152602001848103845288818151815260200191508051906020019080838360005b838110156103035780820151818401526020810190506102e8565b50505050905090810190601f1680156103305780820380516001836020036101000a031916815260200191505b50848103835287818151815260200191508051906020019080838360005b8381101561036957808201518184015260208101905061034e565b50505050905090810190601f1680156103965780820380516001836020036101000a031916815260200191505b50848103825286818151815260200191508051906020019080838360005b838110156103cf5780820151818401526020810190506103b4565b50505050905090810190601f1680156103fc5780820380516001836020036101000a031916815260200191505b509850505050505050505060405180910390f35b610418610a46565b604051808263ffffffff1663ffffffff16815260200191505060405180910390f35b600033905060016040518060a001604052808373ffffffffffffffffffffffffffffffffffffffff1681526020018781526020018681526020018581526020018467ffffffffffffffff168152509080600181540180825580915050906001820390600052602060002090600502016000909192909190915060008201518160000160006101000a81548173ffffffffffffffffffffffffffffffffffffffff021916908373ffffffffffffffffffffffffffffffffffffffff1602179055506020820151816001019080519060200190610516929190610a5f565b506040820151816002019080519060200190610533929190610a5f565b506060820151816003019080519060200190610550929190610a5f565b5060808201518160040160006101000a81548167ffffffffffffffff021916908367ffffffffffffffff16021790555050505060008081819054906101000a900463ffffffff168092919060010191906101000a81548163ffffffff021916908363ffffffff160217905550507f51fce13e9e12fb501188827d59ca2036ac7181262323ecd6856e4dd6a11275018186868686604051808673ffffffffffffffffffffffffffffffffffffffff1673ffffffffffffffffffffffffffffffffffffffff1681526020018060200180602001806020018567ffffffffffffffff1667ffffffffffffffff168152602001848103845288818151815260200191508051906020019080838360005b8381101561067757808201518184015260208101905061065c565b50505050905090810190601f1680156106a45780820380516001836020036101000a031916815260200191505b50848103835287818151815260200191508051906020019080838360005b838110156106dd5780820151818401526020810190506106c2565b50505050905090810190601f16801561070a5780820380516001836020036101000a031916815260200191505b50848103825286818151815260200191508051906020019080838360005b83811015610743578082015181840152602081019050610728565b50505050905090810190601f1680156107705780820380516001836020036101000a031916815260200191505b509850505050505050505060405180910390a15050505050565b600060608060606000600186815481106107a057fe5b906000526020600020906005020160000160009054906101000a900473ffffffffffffffffffffffffffffffffffffffff16600187815481106107df57fe5b9060005260206000209060050201600101600188815481106107fd57fe5b90600052602060002090600502016002016001898154811061081b57fe5b906000526020600020906005020160030160018a8154811061083957fe5b906000526020600020906005020160040160009054906101000a900467ffffffffffffffff16838054600181600116156101000203166002900480601f0160208091040260200160405190810160405280929190818152602001828054600181600116156101000203166002900480156108f45780601f106108c9576101008083540402835291602001916108f4565b820191906000526020600020905b8154815290600101906020018083116108d757829003601f168201915b50505050509350828054600181600116156101000203166002900480601f0160208091040260200160405190810160405280929190818152602001828054600181600116156101000203166002900480156109905780601f1061096557610100808354040283529160200191610990565b820191906000526020600020905b81548152906001019060200180831161097357829003601f168201915b50505050509250818054600181600116156101000203166002900480601f016020809104026020016040519081016040528092919081815260200182805460018160011615610100020316600290048015610a2c5780601f10610a0157610100808354040283529160200191610a2c565b820191906000526020600020905b815481529060010190602001808311610a0f57829003601f168201915b505050505091509450945094509450945091939590929450565b60008060009054906101000a900463ffffffff16905090565b828054600181600116156101000203166002900490600052602060002090601f016020900481019282601f10610aa057805160ff1916838001178555610ace565b82800160010185558215610ace579182015b82811115610acd578251825591602001919060010190610ab2565b5b509050610adb9190610adf565b5090565b610b0191905b80821115610afd576000816000905550600101610ae5565b5090565b9056fea265627a7a723158202d40558d827c8934b45e1a6fbc9034d4ed0faab81c65fb77d3893d6a066af2cd64736f6c63430005100032",
  "source": "// SPDX-License-Identifier: MIT\npragma solidity >=0.4.22 <0.8.0;\n\ncontract bus_safe {\n    uint32 check_count;\n    \n    event AddCheck(\n        address checker,\n        string car_id,\n        string check_res,\n        string check_etc,\n        uint64 check_time\n    );\n     \n    struct check_list{      //점검 사항 구조체\n        address checker;    //점검자 \n        string car_id;      //차량 번호\n        string check_res;   //점검사항\n        string check_etc;   //점검 중 기타 사항\n        uint64 check_time;  //점검 시간\n    }\n    \n    check_list[] internal checks; //점검 사항 구조체 배열로 선언\n    \n    function AddCheckList (string memory _car_id, string memory _check_res, string memory _check_etc, uint64 _check_time) public{   //점검사항 배열에 추가하는 function\n        address _checker = msg.sender;      //점검자는 이 function을 요청하는 주소\n        checks.push(check_list(_checker, _car_id,  _check_res, _check_etc, _check_time));   //checks라는 배열에 추가\n        check_count++;  //checks 배열의 갯수를 확인하기 위해 카운트 업\n        emit AddCheck(_checker, _car_id, _check_res, _check_etc, _check_time);      //event 발생\n    }\n    \n    function TotalCount() public view returns(uint32){  //배열의 갯수를 출력\n        return check_count;\n    }\n    \n    function GetCheck(uint _index) public view returns(address, string memory, string memory, string memory, uint64){   //check 배열에 있는 값을 출력\n\n        return(checks[_index].checker, checks[_index].car_id, checks[_index].check_res, checks[_index].check_etc, checks[_index].check_time);\n\n    }\n    \n    \n    \n}",
  "sourcePath": "D:/문병선/nodejs/teamproject-master/teamproject-master/bus_safe/contracts/bus_safe.sol",
  "compiler": {
    "name": "solc",
    "version": "0.5.16+commit.9c3226ce.Emscripten.clang"
  },
  "schemaVersion": "3.3.2",
  "updatedAt": "2020-12-01T05:48:28.815Z",
  "networkType": "ethereum",
  "devdoc": {
    "methods": {}
  },
  "userdoc": {
    "methods": {}
  }
}